:100000000EC020C01FC01EC01DC01CC01BC01AC017
:1000100019C018C017C016C015C014C013C01124D1
:100020001FBECFE5D1E0DEBFCDBF10E0A0E6B0E05F
:10003000E2E1F3E002C005900D92A436B107D9F7D2
:10004000D2D065C1DDCF8AE0C39A2FE738E391E0D3
:10005000215030409040E1F700C00000C3982FE7E6
:1000600038E391E0215030409040E1F700C00000BB
:10007000815051F7089520E030E080E090E0369A1A
:100080003699FECF64B175B1462F417050E0BA0188
:10009000022E02C0660F771F0A94E2F7860F911DA9
:1000A0002F5F3F4F2031310551F70895BC01892B57
:1000B00051F4089526BB9150E9F74F5F5F4F6417E5
:1000C000750721F4089540E050E028E094E6F2CF6F
:1000D000009769F020E030E0EFECF7E03197F1F7BE
:1000E00000C000002F5F3F4F82179307A9F70895C4
:1000F000009759F020E030E045E84A95F1F700001C
:100100002F5F3F4F82179307B9F708959F92AF92E1
:10011000BF92CF92DF92EF92FF920F931F93CF93F4
:10012000DF93982ED62F8FE0891590F0653080F4FC
:10013000992009F449C0CC24CA94C90CD12C8FEF62
:10014000C81AD80AE12CF12CAA24A394B12C0FC010
:100150007ADF3DC0C801AADFC801CADFCF5FDC1368
:10016000F9CF8FEFE81AF80ACE14DF0459F0DD2337
:10017000C1F385010E2C02C0000F111F0A94E2F793
:10018000C0E0E8CF81E090E0092C02C0880F991F01
:100190000A94E2F78BDFEE24E394F12C0AC0C80145
:1001A000A7DFC80183DFCF5FDC13F9CF9A949920D2
:1001B00071F0DD23D9F38701092C02C0000F111F54
:1001C0000A94E2F7C0E0EBCF81E090E06FDFDF91CF
:1001D000CF911F910F91FF90EF90DF90CF90BF9044
:1001E000AF909F900895BB9A379A399A86B18660EE
:1001F00086B92FEF81EE94E0215080409040E1F7E6
:1002000000C0000088248394912CA12CB12C0F2EC7
:10021000F5E0CF2EF02D2FDF8C01892B11F4082D66
:10022000192DE801EA2CFB2CD12C20E1CE0196956A
:100230008795C170DD27D195C195D109CC27D47B95
:10024000C827D927EE0CFF1CCE0181709927E82A18
:10025000F92A215059F7ED2DF0E0E05AFF4F608167
:1002600070E0C70140D0892BD1F43D9A369A369977
:10027000FECF25B1822F869586956C2D28D0692FCB
:10028000822F82958F7042DF3D9822E02D1508F075
:10029000D39483E0D81216C0DD24D39413C08F2DDD
:1002A0008695869590E014DFDD2041F0DA94D11038
:1002B00009C00F2EF3E0DF2EF02D04C00F2EF3E067
:1002C000DF2EF02D0C171D0709F0AFCFA4CF991B1F
:1002D00079E004C0991F961708F0961B881F7A953D
:1002E000C9F780950895AA1BBB1B51E107C0AA1F3F
:1002F000BB1FA617B70710F0A61BB70B881F991FC7
:100300005A95A9F780959095BC01CD010895F89470
:02031000FFCF1D
:040312000D070502CC
:00000001FF
